:020000040800F2
:10000000F82C0020B102000835590008FD55000801
:1000100031590008F10500080DA300080000000098
:100020000000000000000000000000006161000806
:10003000090A0008000000003D5D0008F1610008A9
:10004000CB020008CB020008CB020008CB0200085C
:10005000CB020008CB020008CB020008CB0200084C
:10006000CB020008CB020008CB020008CB0200083C
:1000700075070008CB020008CB020008CB0200087D
:10008000CB020008CB020008CB02000805060008DE
:10009000F5050008CB020008CB020008CB020008DF
:1000A000CB020008CB020008CB020008CB020008FC
:1000B000CB020008CB020008CB020008CB020008EC
:1000C000CB020008CB020008CB020008CB020008DC
:1000D000CB020008CB020008CB02000849680008E8
:1000E000CB020008CB020008CB020008CB020008BC
:1000F000CB020008CB020008CB020008CB020008AC
:10010000CB020008CB020008CB020008CB0200089B
:10011000CB020008CD620008CB020008CB02000829
:10012000CB020008CB020008CB020008CB0200087B
:10013000CB020008000000000000000025060008B7
:1001400015060008CB020008CB020008A5590008DC
:10015000CB020008CB020008CB020008CB0200084B
:10016000CB020008CB020008CB020008CB0200083B
:10017000CB020008CB020008CB0200080000000000
:1001800000000000CB02000800000000000000009A
:10019000CB0200080000000000000000CB020008B5
:1001A000000000000000000000000000CB0200087A
:1001B000CB020008CB020008CB020008CB020008EB
:1001C000CB02000800F002F800F062F814A696E8EE
:1001D000000CB244B344DA4501D100F059F8BAE852
:1001E0000F000FA696E83000A5EB040504EB060708
:1001F000AAEB0704A7F101074FEA15154FEA3414DB
:10020000A4F10104AC4201D300F042F813F0010F55
:1002100018BFFB1A43F0010300F001F8DBE71847B1
:1002200010D1000030D100000A4410F8014B14F046
:100230000F0508BF10F8015B240908BF10F8014B37
:100240006D1E05D010F8013B6D1E01F8013BF9D180
:10025000641E03D0641E01F8015BFBD19142E4D31C
:10026000704700007047000000230024002500268E
:10027000103A28BF78C1FBD8520728BF30C148BF09
:100280000B6070471FB50CF094FE1FBD10B510BD7C
:1002900000F047F91146FFF7F5FF0AF053FE00F0B2
:1002A00065F903B4FFF7F2FF03BC00F06DF900003D
:1002B0000948804709480047FEE7FEE7FEE7FEE7FA
:1002C000FEE7FEE7FEE7FEE7FEE7FEE70448054936
:1002D000054A064B70470000B9620008C5010008D6
:1002E000F8260020F82C0020F8280020F82800200C
:1002F00053EA020C00F069802DE9F04B4FF0000644
:10030000002B1FBFB3FA83F503FA05F424FA05F6B0
:100310005E4012BF1643B2FA82F502FA05F4C5F147
:1003200020051EBF22FA05FC44EA0C04203556EADB
:10033000044C4FEA144418BF641C4FF000084FF0FF
:100340000009904271EB030C39D3002919BFB1FAAF
:1003500081F701FA07F6B0FA80F700FA07F6C7F15D
:1003600020071EBF20FA07FC46EA0C062037B6FB22
:10037000F4FCA7EB0507103F07F01F0BCBF120069D
:100380002CFA06F60CFA0BFB44BFB3460026202FCE
:10039000A4BF5E464FF0000B5BEA060C08BF4FF0AF
:1003A000010B19EB0B0948EB0608ABFB027C06FBC3
:1003B00002CC0BFB03CCC01B71EB0C01C1E70B465D
:1003C000024641464846BDE8F08B13B5084318BFC6
:1003D0004FF0FF300146AFF30080BDE81C4070478E
:1003E000032A40F2308010F0030C00F0158011F861
:1003F000013BBCF1020F624498BF11F801CB00F839
:10040000013B38BF11F8013BA2F1040298BF00F88C
:1004100001CB38BF00F8013B11F0030300F04F801F
:10042000083AC0F0088051F8043B083A51F804CB70
:10043000A0E80810F5E7121D5CBF51F8043B40F836
:10044000043BAFF30080D20724BF11F8013B11F841
:1004500001CB48BF11F8012B24BF00F8013B00F885
:1004600001CB48BF00F8012B70474FF0000200B5E8
:10047000134694469646203922BFA0E80C50A0E8C7
:100480000C50B1F12001BFF4F7AF090728BFA0E875
:100490000C5048BF0CC05DF804EB890028BF40F841
:1004A000042B08BF704748BF20F8022B11F0804F83
:1004B00018BF00F8012B704770477047704710B5A0
:1004C000203AC0F00B80B1E81850A0E81850B1E80D
:1004D0001850A0E81850203ABFF4F5AF5FEA027C4C
:1004E00024BFB1E81850A0E8185044BF18C918C07C
:1004F000BDE810405FEA827C24BF51F8043B40F81D
:10050000043B08BF7047D20728BF31F8023B48BF01
:1005100011F8012B28BF20F8023B48BF00F8012B3F
:100520007047754600F02CF8AE4605006946534604
:1005300020F00700854618B020B5FFF7C7FEBDE8DC
:1005400020404FF000064FF000074FF000084FF03A
:10055000000BAC46ACE8C009ACE8C009ACE8C00987
:10056000ACE8C00921F007018D46704710B504467C
:10057000AFF300802046BDE81040FFF792BE0000B8
:10058000004870472002002001491820ABBEFEE75A
:10059000260002007047000080B584B003900291ED
:1005A0000020ADF80600039820B1FFE7029802286A
:1005B00001D8FFE71AE003980299023940F20402D9
:1005C000C2F20002128800F025FAADF80600BDF86C
:1005D0000600039A0299114401F8020C9DF80700E5
:1005E000039A0299114401F8010CFFE704B080BDA1
:1005F000FFE7FEE780B541F6BC50C2F2000000F014
:1006000047FD80BD80B541F6BC50C2F2000000F04D
:100610003FFD80BD80B541F6E450C2F2000000F01D
:1006200037FD80BD80B541F6E450C2F2000000F015
:100630002FFD80BD84B08DF80F000291ADF806202B
:100640009DF80F000146009123281DD80099DFE88E
:1006500001F012131415161B1B1B1B1B1B1B1B1B52
:100660001B1B1B1B1B1B1B1B1B1B1B1B1B1B1B1BDA
:100670001B1B1718191A08E007E006E005E004E064
:1006800003E002E001E000E0FFE7002004B0704773
:100690000020704780B582B041F6E020C2F2000031
:1006A000009041F29421C2F200010022019206F072
:1006B00009FD009840F69421C2F2000106F0E4FC26
:1006C000019802B080BD000080B584B00390029113
:1006D000039940F21410C2F200000AF03FFD0399A2
:1006E00041F6E020C2F20000019006F0CDFC019836
:1006F00006F070FC002004B080BD000083B00290C2
:1007000001918DF8032000208DF802009DF9020070
:1007100003B0704780B586B00490ADF80E1000208D
:100720008DF80D0041F6E020C2F20000D0F8BC02C6
:1007300002900298D0F8140220B1FFE701208DF852
:10074000170013E00499BDF80E2041F6E020C2F234
:100750000000019006F0B6FC019806F0BDFD8DF892
:100760000D009DF80D008DF81700FFE79DF81700AC
:1007700006B080BD80B541F60C60C2F2000001F009
:1007800035FA80BD82B001900198007810384AF6A1
:10079000AB21CAF6AA21A0FB011000090090009924
:1007A0004DF2E400C0F60000405C0199C865009875
:1007B000042807D3FFE701990868042262F30900BF
:1007C000886506E00199086840F2FF329043886529
:1007D000FFE70198806D02B07047000086B0059079
:1007E00000208DF813000598806A039005988069B1
:1007F00010BBFFE70398029003281BD80299DFE89B
:1008000001F0020D0218059890F82F00C00720B1E2
:10081000FFE701208DF81300FFE70CE00598C06AA0
:10082000B0F1C07F04D1FFE701208DF81300FFE78E
:1008300001E000E0FFE745E005988069B0F5005F62
:1008400025D1FFE70398019003281ED80199DFE81E
:1008500001F00206021101208DF8130016E0059840
:1008600090F82F00C00720B1FFE701208DF813009A
:10087000FFE70BE00598C06AB0F1C07F04D1FFE745
:1008800001208DF81300FFE700E0FFE719E003986F
:100890000090032804D3FFE70098032804D00EE05B
:1008A00001208DF813000BE0059890F82F00C00789
:1008B00020B1FFE701208DF81300FFE700E0FFE71C
:1008C000FFE7FFE79DF8130006B0704780B582B0E0
:1008D000019000F01DF800F013F8019890ED001A57
:1008E00030EE410A8DED000A40F26860C2F200006D
:1008F0000068019908609DED000A02B080BD00000B
:1009000040F26860C2F2000090ED000A70470000FB
:1009100080B582B000F05AF80190019842F2E031BF
:10092000C2F200010968884226D2FFE741F6DC20C6
:10093000C2F20000016801310160019942F2E03227
:10094000C2F20002116090ED000AB8EE400A9DED7F
:10095000011AB8EE411A9FED1B2A81EE021A9FED93
:100960001A2A20EE020A30EE010A40F26860C2F252
:10097000000080ED000A22E0019842F2E031C2F26C
:100980000001086041F6DC20C2F2000090ED000A90
:10099000B8EE400A9DED011AB8EE411A9FED092A02
:1009A00081EE021A9FED082A20EE020A30EE010ABB
:1009B00040F26860C2F2000080ED000AFFE702B07A
:1009C00080BD00BF0010244890BAC74641F2040021
:1009D000CEF20000006870474EF6FC51CEF20001E6
:1009E000086840F08070086041F20401CEF2000116
:1009F0000020086041F20001CEF20001086840F0DA
:100A000001000860704700007047000072B6FFE701
:100A1000FEE7000084B002900191ADF80220029838
:100A200028B9FFE74FF6FF70ADF80E0021E0FFE7B1
:100A30000198411E0191B8B1FFE70298411C029153
:100A400000788DF80100BDF802109DF801004840C3
:100A5000C2B24DF22E10C0F6000030F8120080EA4B
:100A60001120ADF80200E3E7BDF80200ADF80E007A
:100A7000FFE7BDF80E0004B07047000082B001909F
:100A8000ADF802108DF80120FFE7BDF80200411E0D
:100A9000ADF8021098B1FFE79DF8010001994A1CDA
:100AA0000192097848408DF800009DF800104CF63E
:100AB000E470C0F60000405C8DF80100E5E79DF8A9
:100AC000010002B07047000080B584B047F61020E6
:100AD000C1F6FF700068039047F61420C1F6FF705E
:100AE0000068029047F61820C1F6FF700068019078
:100AF0000199039808440390039888B1FFE703988D
:100B000040F2EC01C2F2000100910231082204F02F
:100B100077FD009902981231042204F071FDFFE77D
:100B200004B080BD84B002900191029890F820003A
:100B30008DF803009DF80300012805D0FFE79DF81C
:100B4000030002280AD1FFE7019A02980168486968
:100B50001043486100208DF80F0008E00299486AB0
:100B600040F48020486201208DF80F00FFE79DF8D7
:100B70000F0004B07047000088B006900591049201
:100B80000393069890F820008DF8070006980068F7
:100B9000806800900598806808B9FFE700E0FFE7EB
:100BA0009DF80700012806D0FFE79DF807000228FE
:100BB00040F08080FFE79DF80300400700280CD438
:100BC000FFE79DF803000007002806D4FFE79DF823
:100BD0000300C006002864D5FFE70098C0F3016059
:100BE0000290029901208840039908600598806866
:100BF00068B9FFE705980168C06840EA4150069966
:100C00000968029A01EB0211C1F880010EE0059912
:100C10004A688868C96840EAC200084306990968BA
:100C2000029A01EB0211C1F88001FFE70598006903
:100C300006990968029A01EB0211C1F8840105982E
:100C4000007D01280CD1FFE706980068029900EBAF
:100C50000111D1F8840140F48070C1F88401FFE7EC
:100C60000498406806990968029A01EB0211C1F8DC
:100C70008C010498006806990968029A01EB021138
:100C8000C1F8880106980068029900EB0111D1F8BB
:100C9000800140F00100C1F8800100208DF81F00A4
:100CA00011E00699486A40F40010486201208DF86E
:100CB0001F0008E00699486A40F48020486201203D
:100CC0008DF81F00FFE79DF81F0008B07047000077
:100CD00086B004900391049800680190049890F8FD
:100CE00020008DF803009DF80300012806D0FFE7DF
:100CF0009DF80300022840F0B080FFE746F2004074
:100D0000C4F2000001900199D1F8000240F0010006
:100D1000C1F800020199D1F8000220F47C50C1F81A
:100D200000020398426A0199D1F8000240EA0220C9
:100D3000C1F800020398406900F01F0101208840BB
:100D40000290029A0199D1F81C029043C1F81C024A
:100D50000398C069F0B9FFE7029A0199D1F80C0233
:100D60009043C1F80C02039A9088D168526940EA16
:100D70000140019901EBC201C1F84002039A1088B9
:100D80009168526940EA0140019901EBC201C1F842
:100D90004402FFE70398C06901281ED1FFE7029AC9
:100DA0000199D1F80C021043C1F80C02039A908803
:100DB0001168526940EA0140019901EBC201C1F892
:100DC0004002039A90899168526940EA0140019972
:100DD00001EBC201C1F84402FFE70398806940B902
:100DE000FFE7029A0199D1F804029043C1F8040286
:100DF00007E0029A0199D1F804021043C1F80402F5
:100E0000FFE70398006940B9FFE7029A0199D1F81A
:100E100014029043C1F8140207E0029A0199D1F834
:100E200014021043C1F81402FFE70398006A012876
:100E300008D1FFE7029A0199D1F81C021043C1F8CA
:100E40001C02FFE70199D1F8000220F00100C1F86F
:100E5000000200208DF8170008E00499486A40F469
:100E60008020486201208DF81700FFE79DF81700E9
:100E700006B0704781B0009001B0704786B0049012
:100E8000039102920193049890F820008DF80300DA
:100E90009DF80300012806D0FFE79DF80300022813
:100EA00040F0E880FFE7039880B9FFE70498006806
:100EB000C068800748B9FFE70499486A40F4001009
:100EC000486201208DF81700DDE00FE0049800680B
:100ED0000069800748B9FFE70499486A40F40010A8
:100EE000486201208DF81700CDE0FFE70498006804
:100EF000039900EB0110D0F8B00100F00400029952
:100F000088600298806858B9FFE7049800680399E0
:100F100000EB0110D0F8B001400D029908600AE022
:100F200004980068039900EB0110D0F8B001C008E4
:100F300002994860FFE704980068039900EB0110EC
:100F4000D0F8B00100F002000299C860049800686F
:100F5000039900EB0110D0F8B40100F00F0008284D
:100F600004D3FFE70299082008610BE004980068A9
:100F7000039900EB0110D0F8B40100F00F000299C2
:100F80000861FFE704980068039900EB0110D0F8AE
:100F9000B40180B2000A029988610498006803993C
:100FA00000EB0110D0F8B401000C029948610498DC
:100FB0000068039900EB0110D0F8B801019908709E
:100FC00004980068039900EB0110D0F8B801000AFA
:100FD0000199487004980068039900EB0110D0F85B
:100FE000B801000C0199887004980068039900EB1F
:100FF0000110D0F8B801000E0199C870049800687B
:10100000039900EB0110D0F8BC0101990871049814
:101010000068039900EB0110D0F8BC01000A0199A7
:10102000487104980068039900EB0110D0F8BC01E6
:10103000000C0199887104980068039900EB011075
:10104000D0F8BC01000E0199C871039838B9FFE7C8
:1010500004980168C86840F02000C86006E0049861
:101060000168086940F020000861FFE700208DF862
:10107000170008E00499486A40F480204862012083
:101080008DF81700FFE79DF8170006B070470000C5
:1010900080B58AB0099000200890099800684069DE
:1010A0000790099800684068069009980068806871
:1010B000059009980068C068049009980068006964
:1010C000039009980068806902909DF81C00C00791
:1010D000002800F09480FFE79DF81400C00758B383
:1010E000FFE709980168012088609DF814008007D7
:1010F000002804D5FFE7099800F0C8FC1BE09DF824
:1011000014004007002805D5FFE7089840F4006068
:1011100008900FE09DF814000007002805D5FFE7B0
:10112000089840F48050089003E0099800F0AAFC69
:10113000FFE7FFE7FFE7FFE79DF81500C00760B393
:10114000FFE7099801684FF4807088609DF81500EA
:101150008007002804D5FFE7099800F09FFC1BE0FA
:101160009DF815004007002805D5FFE7089840F4D2
:10117000005008900FE09DF815000007002805D5E5
:10118000FFE7089840F48040089003E0099800F0D9
:1011900081FCFFE7FFE7FFE7FFE79DF81600C007C8
:1011A00060B3FFE7099801684FF4803088609DF8CC
:1011B00016008007002804D5FFE7099800F076FCA8
:1011C0001BE09DF816004007002805D5FFE70898AA
:1011D00040F4004008900FE09DF81600000700283A
:1011E00005D5FFE7089840F48030089003E009989F
:1011F00000F058FCFFE7FFE7FFE7FFE7FFE79DF898
:101200001C000007002810D5FFE79DF81000C0065D
:10121000002809D5FFE7089840F400700890099865
:1012200001681020C860FFE7FFE79DF81C00400739
:1012300000280FD5FFE79DF810000007002808D50B
:10124000FFE7099801680820C860099800F0E4FAEF
:10125000FFE7FFE79DF81C00800700280BD5FFE79C
:1012600009980068C068800720B1FFE7099800F07E
:10127000D7FAFFE7FFE79DF81C004006002810D5CD
:10128000FFE79DF80C00C006002809D5FFE7089885
:1012900040F4806008900998016810200861FFE719
:1012A000FFE79DF81C00800600280FD5FFE79DF89A
:1012B0000C000007002808D5FFE7099801680820FE
:1012C0000861099800F08CFBFFE7FFE79DF81C0020
:1012D000C00600280BD5FFE7099800680069800761
:1012E00020B1FFE7099800F07FFBFFE7FFE79DF8DB
:1012F0001E00800700280FD5FFE79DF81800C006E4
:10130000002808D5FFE7099801681020486009986F
:1013100000F06EFBFFE7FFE79DF81E00C00778B105
:10132000FFE79DF818000007002808D5FFE7099897
:10133000016808204860099800F0BCFBFFE7FFE760
:101340009DF81D000006002840F18D80FFE79DF804
:1013500018004007002840F18180FFE79DF81D003C
:10136000C00750B1FFE79DF80800C00728B1FFE7AC
:10137000089840F001000890FFE79DF81D008007E5
:1013800000280BD5FFE79DF808008007002805D549
:10139000FFE7089840F002000890FFE79DF81D0065
:1013A000400700280BD5FFE79DF8080040070028FC
:1013B00005D5FFE7089840F004000890FFE79DF886
:1013C0001D000007002848D5FFE79DF8080010F031
:1013D000700F42D0FFE7029800F0700001460191C3
:1013E000102814D0FFE70198202815D0FFE70198B6
:1013F000302816D0FFE70198402817D0FFE7019862
:10140000502818D0FFE70198602819D01DE00898EF
:1014100040F00800089019E0089840F0100008908B
:1014200014E0089840F0200008900FE0089840F081
:10143000400008900AE0089840F08000089005E01D
:10144000089840F48070089000E0FFE70998016870
:10145000886920F070008861FFE7FFE7099801685C
:1014600004204860FFE7089848B1FFE7089A099907
:10147000486A104348620998FFF7FCFCFFE70AB08E
:1014800080BD000080B584B00290029820B9FFE7CB
:1014900001208DF80F00E0E0029890F8200020B9BC
:1014A000FFE7029800F0DEF8FFE70298016808689D
:1014B00040F00100086000F0E9FF0190FFE70298AA
:1014C00000684068C007A8B9FFE700F0DFFF019996
:1014D000401A0B280DD3FFE70299486A40F4003008
:1014E00048620299052081F8200001208DF80F0044
:1014F000B3E0E4E702980168086820F002000860A1
:1015000000F0C4FF0190FFE7029800684068800780
:10151000002815D5FFE700F0B9FF0199401A0B2804
:101520000DD3FFE70299486A40F4003048620299FF
:10153000052081F8200001208DF80F008DE0E3E701
:101540000298007E012807D1FFE702980168086829
:1015500040F08000086006E002980168086820F00A
:1015600080000860FFE70298407E012807D1FFE76E
:1015700002980168086840F04000086006E00298A0
:101580000168086820F040000860FFE70298807E4C
:10159000012807D1FFE702980168086840F02000A1
:1015A000086006E002980168086820F020000860E2
:1015B000FFE70298C07E012807D1FFE70298016883
:1015C000086820F01000086006E0029801680868CA
:1015D00040F010000860FFE70298007F012807D163
:1015E000FFE702980168086840F00800086006E01C
:1015F00002980168086820F008000860FFE7029878
:10160000407F012807D1FFE702980168086840F091
:101610000400086006E002980168086820F00400F1
:101620000860FFE7029B19685A689868D3F80CC0F5
:1016300040EA0C00D3F810C040EA0C005B69184384
:10164000013A1043C861029900204862029A0121C0
:1016500082F820108DF80F00FFE79DF80F0004B00E
:1016600080BD000080B594B01390002012901190BE
:1016700010900F900E901398006846F20041C4F24B
:101680000001884255D1FFE740F26C60C2F20000D1
:101690000168013101600068012812D1FFE7FFE70E
:1016A00000200D9043F64000C4F20200016841F0B2
:1016B00000710160006800F000700D900D98FFE768
:1016C000FFE7FFE700200C9043F63000C4F2020071
:1016D000016841F002010160006800F002000C9016
:1016E0000C98FFE74FF440700E9002200F900020FE
:1016F000079010900320059011900920129040F25D
:101700000040C4F202000EA900F0DAFC0599079A25
:101710001320069000F052FF069800F045FF079A4C
:1017200014200890012100F049FF089800F03CFFC8
:1017300070E01398006846F60001C4F20001884288
:1017400067D1FFE7FFE700200B9043F64000C4F2AB
:101750000200016841F080610160006800F0806073
:101760000B900B98FFE740F26C60C2F2000001683A
:10177000013101600068012812D1FFE7FFE7002076
:101780000A9043F64000C4F20200016841F0007183
:101790000160006800F000700A900A98FFE7FFE718
:1017A000FFE70020099043F63000C4F20200016810
:1017B00041F002010160006800F002000990099800
:1017C000FFE74FF440500E90022002900F9000204F
:1017D000039010900320009011900920129040F285
:1017E0000040C4F202000EA900F06AFC0099039ABE
:1017F0003F20019000F0E2FE019800F0D5FE029932
:10180000039A4020049000F0D9FE049800F0CCFE2A
:10181000FFE7FFE714B080BD81B0009001B07047D2
:1018200080B584B003900398006846F20041C4F28A
:101830000001884240F09580FFE7039841F69C2222
:10184000C2F20002019241F69423C2F20003002189
:10185000FFF714FB01980068A0F2012001460291F5
:10186000032800F27D800299DFE801F03E5C02204F
:1018700041F69420C2F20000018849BA00EE101A25
:10188000B8EEC00A40F28021C2F2000181ED040AE4
:101890008378C27842EA03224A810379427942EA94
:1018A00003228A84807981F8280059E041F6942047
:1018B000C2F20000018849BA00EE101AB8EEC00A60
:1018C00040F24831C2F2000181ED040A8378C27807
:1018D00042EA03224A810379427942EA03228A8456
:1018E000807981F828003BE041F69420C2F20000A4
:1018F000018849BA00EE101AB8EEC00A40F2104151
:10190000C2F2000181ED040A8378C27842EA032220
:101910004A810379427942EA03228A84807981F8F4
:1019200028001DE041F69420C2F20000018849BA67
:1019300000EE101AB8EEC00A40F2D841C2F200011F
:1019400081ED040A8378C27842EA03224A8103794E
:10195000427942EA03228A84807981F82800FFE7ED
:10196000FFE70398006846F60001C4F200018842D0
:1019700033D1FFE7039841F6C022C2F20002009281
:1019800041F6B823C2F200030021FFF777FA00986E
:101990000068B0F5027F1ED1FFE741F6B820C2F221
:1019A0000000018849BA00EE101AB8EEC00A40F2F1
:1019B000A051C2F2000181ED040A8378C27842EAA4
:1019C00003224A810379427942EA03228A84807998
:1019D00081F8280000E0FFE7FFE704B080BD0000C9
:1019E00081B0009001B0704781B0009001B07047A5
:1019F00081B0009001B0704780B584B00290029829
:101A000090F8200001282FD1FFE70299022081F8E9
:101A1000200002980168086820F00100086000F0CA
:101A200035FD0190FFE7029800684068C007A8B143
:101A3000FFE700F02BFD0199401A0B280DD3FFE7BB
:101A40000299486A40F4003048620299052081F802
:101A5000200001208DF80F000FE0E4E7029900203C
:101A600048628DF80F0008E00299486A40F40020AF
:101A7000486201208DF80F00FFE79DF80F0004B0C9
:101A800080BD000081B0009001B0704781B000902F
:101A900001B0704781B0009001B0704781B00090F4
:101AA00001B0704781B0009001B0704781B00090E4
:101AB00001B0704781B0009001B0704780B584B02C
:101AC00002900298806D019000F0E0FC0090029876
:101AD00090F8350002280DD0FFE702998020486574
:101AE000FFE70299002081F83400FFE701208DF81C
:101AF0000F0055E002980168086820F016000860A1
:101B000002980168486920F0800048610298006CE2
:101B100020B9FFE70298806C38B1FFE702980168AE
:101B2000086820F008000860FFE70298016808686C
:101B300020F001000860FFE7029800680068C00715
:101B4000C8B1FFE700F0A2FC0099401A062811D3A3
:101B5000FFE70299202048650299032081F83500AB
:101B6000FFE70299002081F83400FFE703208DF899
:101B70000F0015E0E0E70298C16D3F208840019911
:101B800088600299012081F83500FFE70299002062
:101B900081F83400FFE7FFE700208DF80F00FFE732
:101BA0009DF80F0004B080BD82B00090009890F8BE
:101BB0003500022807D0FFE7009980204865012002
:101BC0008DF807000EE00099052081F83500009897
:101BD0000168086820F001000860FFE700208DF828
:101BE0000700FFE79DF8070002B0704780B586B098
:101BF00005900020039040F22800C2F20000006827
:101C000048F2B511C1F64E31A0FB0110800A0290D6
:101C10000598806D019001980068049004980599DA
:101C2000C96DC840000700281AD5FFE7059800686D
:101C300000684007002812D5FFE70598016808688A
:101C400020F0040008600598C16D082088400199C3
:101C500088600599486D40F001004865FFE7FFE79F
:101C600004980599C96DC840C007A0B1FFE7059861
:101C700000684069000600280CD5FFE70598C16D93
:101C800001208840019988600599486D40F0020064
:101C90004865FFE7FFE704980599C96DC84040070C
:101CA000002814D5FFE70598006800688007002821
:101CB0000CD5FFE70598C16D042088400199886024
:101CC0000599486D40F004004865FFE7FFE7049878
:101CD0000599C96DC840C006002847D5FFE705989B
:101CE00000680068000700283FD5FFE70598C16D30
:101CF00010208840019988600598006800684003BA
:101D000000281AD5FFE7059800680068000300283E
:101D100009D4FFE70598006C20B1FFE70598016C36
:101D20008847FFE708E00598806C20B1FFE7059839
:101D3000816C8847FFE7FFE716E0059800680068B8
:101D4000C005002807D4FFE705980168086820F05F
:101D500008000860FFE70598006C20B1FFE70598D0
:101D6000016C8847FFE7FFE7FFE7FFE70498059965
:101D7000C96DC8408006002840F18D80FFE70598B6
:101D800000680068C006002840F18480FFE70598DD
:101D9000C16D2020884001998860059890F8350031
:101DA000052834D1FFE705980168086820F016007F
:101DB000086005980168486920F08000486105982E
:101DC000006C20B9FFE70598806C38B1FFE70598F3
:101DD0000168086820F008000860FFE70598C16DF9
:101DE0003F208840019988600599012081F83500DD
:101DF000FFE70599002081F83400FFE70598006DA2
:101E000020B1FFE70598016D8847FFE77BE0059863
:101E100000680068400300281AD5FFE705980068AD
:101E200000680003002809D4FFE70598406C20B142
:101E3000FFE70598416C8847FFE708E00598C06B0D
:101E400020B1FFE70598C16B8847FFE7FFE720E077
:101E5000059800680068C005002811D4FFE70598C0
:101E60000168086820F0100008600599012081F8D9
:101E70003500FFE70599002081F83400FFE7FFE710
:101E80000598C06B20B1FFE70598C16B8847FFE755
:101E9000FFE7FFE7FFE70598406DA0B3FFE7059870
:101EA000406DC00730B3FFE70599052081F8350084
:101EB00005980168086820F001000860FFE70398B2
:101EC000013003900299884201D9FFE707E0FFE75C
:101ED000059800680068C0070028F0D1FFE7059961
:101EE000012081F83500FFE70599002081F83400D2
:101EF000FFE7FFE70598C06C20B1FFE70598C16CCC
:101F00008847FFE7FFE706B080BD000080B586B0D8
:101F100004900020039000F0B9FA0290049820B9D0
:101F2000FFE701208DF81700A3E00498406A08B18C
:101F3000FFE7FFE70499022081F83500FFE70499E5
:101F4000002081F83400FFE704980168086820F059
:101F500001000860FFE7049800680068C00790B1BE
:101F6000FFE700F093FA0299401A06280AD3FFE728
:101F70000499202048650499032081F835008DF8E4
:101F8000170076E0E7E7049800680068039003987C
:101F900048F23F01CFF210010840039004990091EC
:101FA0004868D1F808C0CB680A6940EA0C001843B9
:101FB00010434A6910438A691043CA691043096A89
:101FC00001430398084303900498406A042808D109
:101FD000FFE70499C86A096B01430398084303901B
:101FE000FFE703980499096808600498006840694D
:101FF0000390039820F0070003900498416A039827
:10200000084303900498406A04281AD1FFE7049813
:10201000816A0398084303900498C06A80B1FFE77F
:102020000498FEF7DBFB50B1FFE7049940204865B8
:102030000499012081F835008DF8170019E0FFE7B9
:10204000FFE703980499096848610498FEF79AFB32
:1020500001900498C16D3F208840019988600499DF
:1020600000204865049A012182F835108DF8170088
:10207000FFE79DF8170006B080BD000080B584B072
:10208000039000F003FA0290039801900198013048
:1020900048B1FFE740F21520C2F200000178019834
:1020A00008440190FFE7FFE700F0F0F90299401AB9
:1020B0000199884201D2FFE7F6E704B080BD000035
:1020C0008DB00C900B9100200990089007900A9019
:1020D000FFE70A980F2800F2BE81FFE70A99012066
:1020E000884009900B980068099908400890089862
:1020F0000999884240F0AA81FFE70B98406800F0F8
:102100000300012807D0FFE70B98406800F00300A8
:1021100002282FD1FFE70C98806807900A984100A9
:10212000032000FA01F10798884307900B98C068D4
:102130000A99490000FA01F10798084307900798A7
:102140000C9988600C98406807900A99012000FA61
:1021500001F10798884307900B984068C0F300107E
:102160000A9900FA01F107980843079007980C991B
:102170004860FFE70B98406800F00300032818D080
:10218000FFE70C98C06807900A984100032000FA06
:1021900001F10798884307900B9880680A994900D5
:1021A00000FA01F107980843079007980C99C86056
:1021B000FFE70B98406800F00300022826D1FFE7F4
:1021C0000C980A996FF0030202EA51010844006A70
:1021D00007900A9800F0070081000F2000FA01F133
:1021E0000798884307900B9800690A9901F0070146
:1021F000890000FA01F107980843079007980C99A5
:102200000A9B02EA530211440862FFE70C98006837
:1022100007900A984100032000FA01F107988843CB
:1022200007900B98406800F003000A99490000FAF3
:1022300001F107980843079007980C9908600B98DC
:1022400080798007002800F00081FFE7FFE7002089
:10225000069043F64400C4F20200016841F4804154
:102260000160006800F4804006900698FFE70A9835
:1022700020F0030043F60801C4F201014058079022
:102280000A9800F0030081000F2000FA01F107987E
:10229000884307900C980021C4F20201884203D1C0
:1022A000FFE70020059050E00C9840F20041C4F296
:1022B0000201884203D1FFE70120049042E00C981C
:1022C00040F60001C4F20201884203D1FFE7022078
:1022D000039034E00C9840F60041C4F202018842B9
:1022E00003D1FFE70320029026E00C9841F20001A1
:1022F000C4F20201884203D1FFE70420019018E0F4
:102300000C9841F20041C4F20201884203D1FFE778
:10231000052000900AE00C9941F60002C4F2020286
:102320000720914208BF06200090FFE70098019027
:10233000FFE701980290FFE702980390FFE70398F8
:102340000490FFE704980590FFE70598C0B20A994A
:1023500001F00301890000FA01F107980843079092
:1023600007980A9921F0030143F60802C4F201021A
:10237000885043F60840C4F20100006807900899AD
:102380000798884307900B988079C006002805D5E8
:10239000FFE70899079808430790FFE7079843F677
:1023A0000841C4F20101086043F60C40C4F2010088
:1023B0000068079008990798884307900B988079E0
:1023C0008006002805D5FFE708990798084307907D
:1023D000FFE7079843F60C41C4F20101086043F699
:1023E0000440C4F2010000680790089907988843E8
:1023F00007900B9880798007002805D5FFE708999A
:10240000079808430790FFE7079843F60441C4F292
:102410000101086043F60040C4F201000068079023
:1024200008990798884307900B988079C00728B1CE
:10243000FFE70899079808430790FFE7079843F6D6
:102440000041C4F201010860FFE7FFE7FFE70A98D7
:1024500001300A903DE60DB07047000082B0019057
:10246000ADF8021001980069BDF80210084204D0CE
:10247000FFE701208DF8010003E000208DF8010046
:10248000FFE79DF8010002B07047000042F2F460DF
:10249000C2F200000068704740F21520C2F200004E
:1024A000027842F2F461C2F2000108681044086048
:1024B0007047000080B543F60041C4F2020108688D
:1024C00040F400700860086840F4806008600868A4
:1024D00040F480700860032000F08AF80F2000F0BC
:1024E00005F800F03BF8002080BD000080B582B008
:1024F000009040F22800C2F20000006840F215216E
:10250000C2F200010A784FF47A71B1FBF2F1B0FB2C
:10251000F1F002F0B7FB20B1FFE701208DF80700D2
:1025200018E000980F280DD8FFE700994FF0FF3012
:10253000002200F043F8009840F21821C2F2000196
:10254000086003E001208DF8070003E000208DF80B
:102550000700FFE79DF8070002B080BD82B0FFE7EB
:102560000020019043F64400C4F20200016841F4E7
:1025700080410160006800F4804001900198FFE70D
:10258000FFE70020009043F64000C4F2020001681B
:1025900041F080510160006800F080500090009888
:1025A000FFE702B07047000080B582B08DF80700E9
:1025B0009DF9070007F018FF02B080BD80B586B016
:1025C0008DF81700049103920020029007F024FF79
:1025D00002909DF91700019002980499039A03F064
:1025E000ABF90146019807F01FFF06B080BD00005F
:1025F00080B582B00190019807F038FF02B080BD2D
:1026000082B0019001980068009001990120C1F802
:10261000D8040199002081F8CC04009A916941F016
:1026200000619161009A516D0323C1F200031943C7
:10263000516502B07047000080B584B003908DF8FA
:102640000B109DF80B000146019120B1FFE70198A6
:1026500001281DD037E00398C07A58B1FFE703F096
:10266000CBFD4EF61051CEF20001086820F00600B6
:102670000860FFE703980168D1F8000E20F0010020
:10268000C1F8000E0398D0F8E00405F0A3FE1AE0AC
:1026900003980168D1F8000E40F00100C1F8000E67
:1026A0000398D0F8E00405F073FF0398C07A48B1AE
:1026B000FFE74EF61051CEF20001086840F0060028
:1026C0000860FFE7FFE704B080BD000082B0019022
:1026D000ADF80210BDF802000199096848620020B7
:1026E00002B0704784B003908DF80B10ADF808204D
:1026F00003980068406A00909DF80B0048B9FFE716
:10270000BDF80810009840EA014003990968886202
:1027100033E003980068816A009800EB1140009054
:1027200000208DF80700FFE79DF807009DF80B10CB
:102730000139884213D2FFE7039800689DF807101B
:1027400000EB8100D0F80411009800EB11400090DC
:10275000FFE79DF8070001308DF80700E4E7BDF8BA
:102760000810009840EA0140039909689DF80B2081
:1027700001EB8201C1F80001FFE7002004B07047BF
:1027800080B582B001900198D0F8E00405F07AFCA1
:1027900002B080BD80B582B001908DF80310019A1F
:1027A000D2F8E0049DF8031001EBC10302EB8302B1
:1027B000126A05F0C5FA02B080BD000080B582B093
:1027C00001908DF80310019AD2F8E0049DF80310EF
:1027D00001EBC10302EB8302D2F8602205F078FB23
:1027E00002B080BD80B582B001900198D0F8E004BD
:1027F00005F04EFC02B080BD80B584B003908DF82A
:102800000B109DF80B00000600280CD5FFE703987D
:102810009DF80B1001F00F0101EBC10100EB8100ED
:10282000143001900CE003989DF80B1001F00F019B
:1028300001EBC10100EB810000F515700190FFE78D
:1028400003980068019907F099F98DF80A009DF83E
:102850000A0004B080BD000080B584B002908DF8FD
:1028600007109DF80700000600280FD5FFE7029823
:102870009DF8071001F00F0101EBC10100EB810091
:10288000143000900099012048700FE002989DF8E4
:10289000071001F00F0101EBC10100EB810000F511
:1028A00015700090009900204870FFE79DF8070020
:1028B00000F00F0000990870FFE7029890F8940468
:1028C000012804D1FFE702208DF80F0014E00299DF
:1028D000012081F89404FFE7FFE70298006800995F
:1028E00006F042FCFFE70299002081F89404FFE71C
:1028F00000208DF80F00FFE79DF80F0004B080BDA9
:1029000080B584B002908DF807109DF8070000F0A4
:102910000F0002990979884204D9FFE701208DF858
:102920000F004DE09DF80700000600280FD5FFE7D7
:1029300002989DF8071001F00F0101EBC10100EBB7
:102940008100143000900099012048700FE0029837
:102950009DF8071001F00F0101EBC10100EB8100B0
:1029600000F515700090009900204870FFE700996D
:10297000002088709DF8070000F00F000099087093
:10298000FFE7029890F89404012804D1FFE70220A1
:102990008DF80F0014E00299012081F89404FFE7FC
:1029A000FFE702980068009906F048FEFFE70299E9
:1029B000002081F89404FFE700208DF80F00FFE766
:1029C0009DF80F0004B080BD82B001908DF8031017
:1029D00001989DF8031001F00F0101EBC10100EB1C
:1029E0008100D0F8680202B07047000080B586B060
:1029F00004908DF80F10ADF80C208DF80B300020EE
:102A00008DF80A009DF80F00000600280FD5FFE79B
:102A100004989DF80F1001F00F0101EBC10100EBCC
:102A20008100143001900199012048700FE0049852
:102A30009DF80F1001F00F0101EBC10100EB8100C7
:102A400000F515700190019900204870FFE79DF88E
:102A50000F0000F00F0001990870BDF80C006FF333
:102A6000DF20019988609DF80B0001990871019899
:102A7000407820B1FFE7019908784883FFE79DF887
:102A80000B00022804D1FFE7019900204871FFE7FD
:102A9000FFE7049890F89404012804D1FFE702208E
:102AA0008DF8170015E00499012081F89404FFE7E0
:102AB000FFE704980068019906F028FAFFE70499F7
:102AC000002081F89404FFE79DF80A008DF81700B4
:102AD000FFE79DF8170006B080BD000080B586B006
:102AE00005908DF813100392029305989DF813102A
:102AF00001F00F0101EBC10100EB810000F5157041
:102B0000019003980199C8600298019908610199A0
:102B100000204861019948709DF8130000F00F00F3
:102B20000199087005988079012804D1FFE703987E
:102B30000199C861FFE7059A10680199927906F03A
:102B400021FE002006B080BD80B584B002908DF8D3
:102B500007109DF8070000F00F00029909798842DC
:102B600004D9FFE701208DF80F0058E09DF8070019
:102B7000000600280FD5FFE702989DF8071001F026
:102B80000F0101EBC10100EB8100143000900099AE
:102B9000012048700DE002989DF8071001EBC1017B
:102BA00000EB810000F5157000900099002048703E
:102BB000FFE70099012088709DF8070000F00F00E2
:102BC00000990870FFE7029890F89404012804D156
:102BD000FFE702208DF80F0021E00299012081F823
:102BE0009404FFE7FFE702980068009906F076FD7D
:102BF0009DF80700000740B9FFE7029A1068917935
:102C000002F29C4206F0CAFCFFE7FFE702990020AF
:102C100081F89404FFE700208DF80F00FFE79DF88E
:102C20000F0004B080BD000080B586B005908DF81F
:102C300013100392029305989DF8131001F00F01F1
:102C400001EBC10100EB8100143001900398019960
:102C5000C8600298019908610199002048610199B2
:102C6000012048709DF8130000F00F0001990870D2
:102C700005988079012804D1FFE703980199C8617C
:102C8000FFE7059A10680199927906F07BFD002014
:102C900006B080BD80B58CB00B900B9800680A9090
:102CA0000A9809900B98006807F09EF8002840F0F9
:102CB0003384FFE70B98006807F002F910B9FFE7CB
:102CC00000F02ABC0998D0F80808C0F30D200B9931
:102CD000C1F8D4040B98006807F0F2F880070028C8
:102CE00007D5FFE70B980168486900F002004861CA
:102CF000FFE70B98006807F0E3F8C006002862D5EC
:102D0000FFE70B980168886920F0100088610A9835
:102D1000006A02900B98029901F00F0101EBC101CA
:102D200000EB810000F515700890029800F4F01196
:102D30000220B0EB514F23D1FFE7BDF8080047F662
:102D4000F07108421BD0FFE70A980899C968029AF7
:102D5000C2F30A1207F0C2F8029847F6F07100EACF
:102D60000103089AD06800EB1310D060029800EAC3
:102D700001020899486900EB12104861FFE71BE067
:102D8000029800F4F0110620B0EB514F12D1FFE78A
:102D90000A980B9901F29C41082207F09FF80298CB
:102DA00047F6F07100EA01020899486900EB121039
:102DB000486100E0FFE7FFE70B980168886940F091
:102DC00010008861FFE70B98006807F079F80003AE
:102DD000002840F1A680FFE7002004900B980068CF
:102DE00007F01CF80690FFE70698002800F098808E
:102DF000FFE79DF81800C007002800F08A80FFE771
:102E00000B9800689DF8101007F042F805909DF8A7
:102E10001400C00760B1FFE70998049900EB411165
:102E20000120C1F8080B0B98049902F009FEFFE796
:102E30009DF81400000700280CD5FFE709980499B5
:102E400000EB41110820C1F8080B0B98049902F01F
:102E5000B1FDFFE79DF81400C006002808D5FFE784
:102E60000998049900EB41111020C1F8080BFFE705
:102E70009DF81400800700282DD5FFE70A984069C7
:102E80000006002808D5FFE70999D1F8040840F4A6
:102E90008060C1F80408FFE70B98049901EBC101B9
:102EA00000EB810000F5157008900898C0780128A3
:102EB00009D1FFE708990020C8700B989DF8101001
:102EC00000F03AFBFFE70998049900EB411102205A
:102ED000C1F8080BFFE79DF814008006002808D50C
:102EE000FFE70998049900EB41112020C1F8080B75
:102EF000FFE79DF815008006002809D5FFE709982F
:102F0000049900EB41114FF40050C1F8080BFFE7A2
:102F1000FFE704980130049006984008069063E7A4
:102F2000FFE70B98006806F0CBFF4003002840F154
:102F3000C680FFE70B98006806F05EFF0690002051
:102F40000490FFE70698002800F0B880FFE79DF89E
:102F50001800C007002800F0AA80FFE70B9800685F
:102F60009DF8101006F06CFF05909DF81400C00746
:102F700000283ED0FFE7049800F00F01012000FA7E
:102F800001F10391039B099AD2F834189943C2F8CE
:102F900034180999049A01EB4211C1F808090B98F9
:102FA000807901281FD1FFE70B98049901EBC1013B
:102FB00000EB8101CA69086A10440862049888B964
:102FC000FFE70B98049901EBC10100EB8100406A17
:102FD00040B9FFE70B99086801F29C42012106F015
:102FE000DDFAFFE7FFE70B989DF81010FFF7D2FB23
:102FF000FFE79DF814000007002808D5FFE70998AF
:10300000049900EB41110820C1F80809FFE79DF879
:103010001400C006002808D5FFE70998049900EBC2
:1030200041111020C1F80809FFE79DF8140040067F
:10303000002808D5FFE70998049900EB41114020CA
:10304000C1F80809FFE79DF814008007002822D581
:10305000FFE70A98049906F063FE0B98049901EBC8
:10306000C10100EB8100143008900898C078012855
:1030700009D1FFE708990020C8700B989DF810103F
:1030800000F04CFAFFE70998049900EB4111022087
:10309000C1F80809FFE79DF814000006002805D5CF
:1030A000FFE70B98049902F0AFFDFFE7FFE70498F4
:1030B0000130049006984008069043E7FFE70B981C
:1030C000006806F0FDFEC00F00B3FFE70999D1F8D4
:1030D000040820F00100C1F804080B9890F8CC0413
:1030E000012808D1FFE70B98002180F8CC140B9839
:1030F000FFF7A2FA03E00B9800F0EAFBFFE70B985A
:103100000168486900F000404861FFE70B980068DB
:1031100006F0D6FE0005002811D5FFE70998D0F883
:103120000808C00720B1FFE70B9800F05DFCFFE73F
:103130000B980168486900F400604861FFE70B984C
:10314000006806F0BDFE0001002820D5FFE70B98BF
:103150000168486900F0006048610B9890F8CC0461
:1031600080B9FFE70B98012180F8CC140B98006818
:10317000406DC0F383000B9AC2F8D0040B98FFF7A0
:103180005BFA03E00B9800F02FFCFFE7FFE70B98DA
:10319000006806F095FEC004002840F18680FFE735
:1031A0000999D1F8040820F00100C1F804080B982F
:1031B0000068102106F0B4FD00200790FFE7079893
:1031C0000B990979884231D2FFE70998079900EBFA
:1031D00041114FF67F30C1F808090999079A01EBB0
:1031E0004212D2F8001921F40011C2F8001909990D
:1031F000079A01EB4211C1F8080B0998079900EBF7
:103200004111D1F8000B20F40010C1F8000B09980F
:10321000079900EB4111D1F8000B40F00060C1F8B4
:10322000000BFFE7079801300790C8E70999D1F82C
:103230001C0840F00110C1F81C080B98C07B78B145
:10324000FFE70999D1F8840840F00B00C1F8840821
:103250000999D1F8440840F00B00C1F844080FE088
:103260000999D1F8140842F22B021043C1F814084E
:103270000999D1F8100840F00B00C1F81008FFE7D9
:103280000999D1F8000820F4FE60C1F800080B9AF3
:103290001068917902F29C4206F080F90B9801685F
:1032A000486900F480504861FFE70B98006806F019
:1032B00007FE800400281FD5FFE70B98006805F083
:1032C00095FE0B98006806F069FD0B99C8710B9884
:1032D0000068019001F060F8014601980B9AD279DC
:1032E00006F0F4FE0B9800F0C9FA0B9801684869E3
:1032F00000F400504861FFE70B98006806F0E0FD1D
:10330000000700280AD5FFE70B9800F0EBFA0B98AE
:103310000168486900F008004861FFE70B98006801
:1033200006F0CEFD0006002825D5FFE70A9988693A
:1033300020F08000886101200490FFE704980B9939
:103340000979884216D2FFE70B98049901EBC10175
:1033500000EB810090F85702012806D1FFE70B9897
:103360009DF81010FFF748FAFFE7FFE704980130D7
:103370000490E3E7FFE70B98006806F0A1FDC002A8
:1033800000283CD5FFE701200490FFE704980B9943
:10339000097988422CD2FFE70998049900EB411083
:1033A000D0F8000902900B98049901EBC10100EBE1
:1033B0008100007E012816D1FFE79DF80B00000672
:1033C000002810D5FFE70B98049901EBC10100EB31
:1033D00081010120C8750B989DF8101041F0800103
:1033E000FFF70AFAFFE7FFE7049801300490CDE702
:1033F0000B980168486900F480104861FFE70B985A
:10340000006806F05DFD8002002855D5FFE7012029
:103410000490FFE704980B990979884245D2FFE7A9
:103420000998049900EB4110D0F8000B02900B981A
:10343000049901EBC10100EB810090F858020128CA
:103440002ED1FFE79DF80B000006002828D5FFE7E6
:10345000029800F480300B99D1F8D41401F00101E6
:1034600088421DD1FFE70B98049901EBC10100EBE5
:103470008101012081F857020A99886940F0800093
:1034800088610A9840690006002808D4FFE7099976
:10349000D1F8040840F40070C1F8040805E0FFE723
:1034A000FFE7049801300490B4E70B98016848697D
:1034B00000F400104861FFE70B98006806F000FD7B
:1034C000400000280AD5FFE70B98FFF759F90B9841
:1034D0000168486900F080404861FFE70B98006888
:1034E00006F0EEFC4007002815D5FFE70B980068B2
:1034F000406802909DF808004007002804D5FFE7C7
:103500000B98FFF76FF9FFE7029A0B98016848687C
:1035100010434860FFE7FFE70CB080BD80B582B084
:1035200001908DF803100198D0F8E0049DF8031085
:1035300004F04AFE02B080BD80B582B001908DF8E3
:1035400003100198D0F8E0049DF8031004F074FE15
:1035500002B080BD80B58EB00C900C9820B9FFE70A
:1035600001208DF837001AE10C9800680B900C9838
:1035700090F8950440B9FFE70C99002081F8940475
:103580000C9800F011F9FFE70C99032081F89504DD
:103590000B98B0F1A04F04D1FFE70C99002088717F
:1035A000FFE70C98006805F0EFFF0C9B1868197C8A
:1035B0008DF8241059689A68DB6808930792069181
:1035C0000699079A089BDDF824C0EE46CEF800C0A5
:1035D00005F022FD40B1FFE70C99022081F8950427
:1035E00001208DF83700DAE00C980068002106F021
:1035F000CFFC40B1FFE70C99022081F8950401202F
:103600008DF83700CBE000208DF82B00FFE79DF808
:103610002B000C990979884241DAFFE70C989DF854
:103620002B1001EBC10100EB8101012048759DF8D1
:103630002B000C9900EBC00201EB820108759DF88C
:103640002B000C9900EBC00201EB8201C8850C989D
:103650009DF82B1001EBC10100EB810100200876E1
:103660000C999DF82B2002EBC20201EB8201C8618C
:103670000C999DF82B2002EBC20201EB820108623B
:103680000C999DF82B2002EBC20201EB82014862EB
:10369000FFE79DF82B0001308DF82B00B7E70020E5
:1036A0008DF82B00FFE79DF82B000C9909798842D3
:1036B0003EDAFFE70C989DF82B1001EBC10100EBFF
:1036C0008101002081F855029DF82B100C9A01EB26
:1036D000C10302EB830282F854120C999DF82B204F
:1036E00002EBC20201EB820181F858020C999DF8AD
:1036F0002B2002EBC20201EB8201C1F85C020C99A3
:103700009DF82B2002EBC20201EB8201C1F860029E
:103710000C999DF82B2002EBC20201EB8201C1F84B
:103720006402FFE79DF82B0001308DF82B00BAE70B
:103730000C9B1868197C8DF8141059689A68DB681E
:103740000493039202910299039A049BDDF814C03A
:10375000EE46CEF800C005F0CFFD40B1FFE70C9972
:10376000022081F8950401208DF8370017E00C99AC
:10377000002048740C99012081F895040C98007B76
:10378000012804D1FFE70C98FEF73AFFFFE70C98F9
:10379000006805F09BFD00208DF83700FFE79DF8DD
:1037A00037000EB080BD000080B5A0B01F90002093
:1037B0001E901D901C901B901A9003A85C21FCF792
:1037C00054FE1F980068B0F1A04F54D1FFE74FF4AA
:1037D000807003900020189003A800F025F918B11C
:1037E000FFE7FDF713F9FFE7FFE70020029043F63C
:1037F0003000C4F20200016841F00101016000687C
:1038000000F0010002900298FFE74FF4C0501A90B8
:1038100002201B9000201C9003201D900A201E9067
:103820000020C4F202001AA9FEF74AFCFFE743F6A3
:103830003401C4F20201086840F080000860FFE72C
:103840000020019043F64400C4F20200016841F4F4
:1038500080410160006800F4804001900198FFE71A
:10386000FFE74320009000221146FEF7A7FE0098D4
:10387000FEF79AFEFFE720B080BD000080B582B061
:10388000019001208DF803000198C07920B9FFE76D
:1038900000208DF803000CE00198C079022804D1C3
:1038A000FFE701208DF8030002E0FDF7AFF8FFE726
:1038B000FFE70198D0F8E0049DF8031004F0BCFD88
:1038C0000198D0F8E00404F037FD02B080BD00009C
:1038D00080B582B001900198D0F8E00404F07AFD40
:1038E00002B080BD80B582B001900198D0F8E004AC
:1038F00004F082FD02B080BD80B584B002908DF8E6
:103900000710FFE7029890F89404012804D1FFE71C
:1039100002208DF80F0019E00299012081F894042B
:10392000FFE7FFE79DF807000299487402980068D6
:103930009DF8071006F09CFBFFE70299002081F834
:103940009404FFE700208DF80F00FFE79DF80F00BB
:1039500004B080BD80B582B001900199D1F8E00437
:1039600001F29C4104F092FD02B080BD80B584B0AC
:103970000290029800680190FFE7029890F8940482
:10398000012804D1FFE702208DF80F0028E00299FA
:10399000012081F89404FFE7FFE70198C068400622
:1039A00000280BD5FFE70298407B012806D1FFE7EE
:1039B0000199886B40F480308863FFE702980068C3
:1039C00006F06AF90298006805F06AFCFFE70299C0
:1039D000002081F89404FFE700208DF80F00FFE736
:1039E0009DF80F0004B080BD80B582B001900198B1
:1039F000D0F8E00404F0CCFD01980168D1F8000E85
:103A000040F00100C1F8000E0198C07A48B1FFE70C
:103A10004EF61051CEF20001086840F00600086032
:103A2000FFE702B080BD000080B58EB00C90002092
:103A300001900B900A9009900890079006900590CD
:103A4000049003900C980078C00798B1FFE743F604
:103A50008C01C4F20201086820F0C0600C9A926BDD
:103A6000104308600C98806B18B9FFE701200490A0
:103A7000FFE7FFE70C9800788007002813D5FFE7E1
:103A800043F68C01C4F20201086820F0C0500C9A81
:103A9000D26B104308600C98C06B18B9FFE7012087
:103AA0000490FFE7FFE70C980078400700281CD53A
:103AB000FFE743F68C01C4F20201086820F44010CD
:103AC0000C9A126B104308600C98006BB0F5801FC5
:103AD00003D1FFE701200490FFE70C98006B18B9B1
:103AE000FFE701200390FFE7FFE70C98007800074D
:103AF00000281CD5FFE743F68C01C4F202010868D8
:103B000020F440000C9A526B104308600C98406BF4
:103B1000B0F5800F03D1FFE701200490FFE70C9878
:103B2000406B18B9FFE701200390FFE7FFE70C980F
:103B300000788006002840F1AD80FFE7FFE7002015
:103B4000029043F64000C4F20200016841F0805147
:103B50000160006800F0805002900298FFE747F291
:103B60000001C4F20001086840F480700860FEF7AC
:103B70008DFC0B90FFE747F20000C4F200000068E4
:103B8000C00500280CD4FFE7FEF780FC0B99401A13
:103B9000032804D3FFE703208DF83700C6E2EAE7E5
:103BA00043F67000C4F20200006800F440700A900E
:103BB0000A9800283ED0FFE70A980C99096C01F496
:103BC0004071884236D0FFE743F67000C4F202002D
:103BD000016821F440710A9140F64062C4F2472224
:103BE00001211160002111600A9901600068C0077D
:103BF000F8B1FFE7FEF74AFC0B90FFE743F67000D1
:103C0000C4F20200006800F002010020B0EB510F86
:103C10000ED1FFE7FEF73AFC0B99401A41F28931C9
:103C2000884204D3FFE703208DF837007EE2E5E702
:103C3000FFE7FFE7FFE70C98006C00F44070B0F579
:103C4000407F11D1FFE743F60801C4F20201086882
:103C500020F4F8100C9A126C4FF6FF43C0F6FF7375
:103C60001A401043086008E043F60801C4F202015C
:103C7000086820F4F8100860FFE70C98026C6FF3F6
:103C80001F3243F67001C4F2020108681043086055
:103C9000FFE7FFE70C980078C006002809D5FFE78A
:103CA0000C9890F8580041F2E011C4F247210860E6
:103CB000FFE70C980078000600280CD5FFE743F6D4
:103CC0009401C4F20201086820F440000C9AD26CFE
:103CD00010430860FFE70C980078400600280CD5D8
:103CE000FFE743F69401C4F20201086820F0806007
:103CF0000C9A926C10430860FFE70C984078C0075C
:103D0000A8B1FFE743F69401C4F20201086820F06D
:103D100000600C9A526D104308600C98406DB0F131
:103D2000006F03D1FFE701200390FFE7FFE70C9846
:103D30004078800700280CD5FFE743F69401C4F2D1
:103D40000201086820F080500C9A526C1043086001
:103D5000FFE70C9840784007002815D5FFE743F6A9
:103D60009401C4F20201086820F000500C9A126D10
:103D7000104308600C98006DB0F1005F03D1FFE7BD
:103D800001200490FFE7FFE70498012807D0FFE730
:103D90000C980068B0F5006F40F01681FFE76821CD
:103DA000C4F2472100200860FEF770FB0B90FFE78C
:103DB00043F60000C4F20200006800F00061002039
:103DC000B0EBD16F0CD0FFE7FEF760FB0B99401A08
:103DD000032804D3FFE703208DF83700A6E1E7E7C7
:103DE0000C980078C00720B1FFE70C98806B50B1A9
:103DF000FFE70C9800788007002829D5FFE70C988A
:103E0000C06B28BBFFE743F68401C4F202010868D7
:103E100000F44032022000EBD23009900868C0F371
:103E2000036008900C9A50689368526940EA8310C6
:103E3000099BDB034FF6FF7C23EA0C03A3F58033D9
:103E40001843089B40EA036040EA02700860FFE7FD
:103E50000C9800784007002806D5FFE70C98006B07
:103E6000B0F5801F0CD0FFE70C9800780007002801
:103E700037D5FFE70C98406BB0F5800F31D1FFE7E5
:103E800043F68401C4F20201086800F440320220C3
:103E900000EBD23009900868C0F3027007900C9ACA
:103EA00050689368126940EA8310099BDB034FF660
:103EB000FF7C23EA0C03A3F58033184340EA026039
:103EC000079A40EA0270086043F68C01C4F20201CE
:103ED000086820F01F000C9A926A013A10430860AB
:103EE000FFE70C984078400700282AD5FFE70C9898
:103EF000006DB0F1005F24D1FFE743F68401C4F206
:103F00000201086800F44032022000EBD230089031
:103F10000868C0F3027007900C9A50689368D268E2
:103F200040EA8310D2034FF6FF739A43A2F5803222
:103F30001043089A40EA0260079A40EA027008605B
:103F4000FFE70C984078000700281BD5FFE70C9985
:103F50004868D1F808C0CB680A6940EA8C10DB03D6
:103F60004FF6FF7C23EA0C03A3F58033184340EAA5
:103F70000260496940EA017043F68401C4F202011B
:103F80000860FFE76821C4F2472101200860FEF7BE
:103F90007DFA0B90FFE743F60000C4F202000068D0
:103FA00000F000610020B0EBD16F0CD1FFE7FEF70D
:103FB0006DFA0B99401A032804D3FFE703208DF80C
:103FC0003700B3E0E7E7FFE70398012840F0AA8055
:103FD000FFE77021C4F2472100200860FEF756FA7F
:103FE0000B90FFE743F60000C4F20200006800F007
:103FF00000510020B0EB517F0CD0FFE7FEF746FAEE
:104000000B99401A032804D3FFE703208DF83700EB
:104010008CE0E7E70C9800784007002804D5FFE71C
:104020000C98006B50B1FFE70C980078000700284F
:1040300031D5FFE70C98406B68BBFFE743F688017A
:10404000C4F20201086800F44032022000EBD230D2
:1040500006900C9A9069D369526A40EA8310069BD5
:10406000DB034FF6FF7C23EA0C03A3F580331843F0
:1040700040EA0260086043F68C01C4F2020108685D
:1040800020F4F8500C9AD36A6FF0FF0202EB03227F
:1040900010430860FFE70C984078C00700B3FFE7C3
:1040A0000C98406DB0F1006F1AD1FFE743F688011C
:1040B000C4F202010868C0F3036005900C9A90698D
:1040C000D369126A40EA8310D2034FF6FF739A4312
:1040D000A2F580321043059A40EA02600860FFE7CB
:1040E0007021C4F2472101200860FEF7CFF90B9040
:1040F000FFE743F60000C4F20200006800F0005140
:104100000020B0EB517F0CD1FFE7FEF7BFF90B9910
:10411000401A032804D3FFE703208DF8370005E099
:10412000E7E7FFE700208DF83700FFE79DF837004D
:104130000EB080BD80B584B002900191029820B984
:10414000FFE701208DF80F0021E1019843F60041BF
:10415000C4F20201096801F00F01884212D9FFE799
:10416000019943F60040C4F202000170006800F0BB
:104170000F000199884204D0FFE701208DF80F005D
:1041800005E1FFE702980078800700282AD5FFE7BD
:10419000029800784007002809D5FFE743F6080198
:1041A000C4F20201086840F4E0500860FFE702989A
:1041B00000780007002809D5FFE743F60801C4F29C
:1041C0000201086840F460400860FFE743F6080118
:1041D000C4F20201086820F0F000029A92681043CD
:1041E0000860FFE702980078C00700286ED0FFE75C
:1041F00002984068012811D1FFE743F60000C4F29D
:104200000200006800F400310020B0EB514F04D1EF
:10421000FFE701208DF80F00B9E02CE0029840681C
:10422000022805D0FFE702984068032811D1FFE774
:1042300043F60000C4F20200006800F000710020A4
:10424000B0EB516F04D1FFE701208DF80F009EE025
:1042500010E043F60000C4F20200006800F0020122
:104260000020B0EB510F04D1FFE701208DF80F00C3
:104270008DE0FFE7FFE743F60801C4F2020108689A
:1042800020F00300029A526810430860FEF7FEF81F
:104290000090FFE743F60800C4F20200006800F057
:1042A0000C0002994968B0EB810F0ED0FFE7FEF7D2
:1042B000EDF80099401A41F28931884204D3FFE7B2
:1042C00003208DF80F0062E0E4E7FFE7019843F672
:1042D0000041C4F20201096801F00F01884212D2C4
:1042E000FFE7019943F60040C4F202000170006844
:1042F00000F00F000199884204D0FFE701208DF8FB
:104300000F0044E0FFE702980078400700280CD532
:10431000FFE743F60801C4F20201086820F4E05008
:10432000029AD26810430860FFE7029800780007FD
:1043300000280DD5FFE743F60801C4F20201086822
:1043400020F46040029A126940EAC2000860FFE768
:1043500000F04CF843F60801C4F202010968C9B242
:104360000A094CF6CC71C0F60001895CC84040F2E5
:104370002801C2F20001086040F21820C2F20000D9
:104380000068FEF7B3F800208DF80F00FFE79DF8F6
:104390000F0004B080BD000040F22800C2F200000F
:1043A0000068704780B5FFF7F7FF43F60801C4F2D5
:1043B00002010968C1F382224CF6DC71C0F60001EB
:1043C000895CC84080BD000080B5FFF7E5FF43F67B
:1043D0000801C4F20201096889B24A0B4CF6DC718B
:1043E000C0F60001895CC84080BD000080B586B081
:1043F00000200590049003900290019043F608007D
:10440000C4F20200006800F00C00014600910C2884
:1044100000F29B800099DFE801F0079898980D98CA
:10442000989813989898570042F20040C0F2F40010
:10443000019090E041F60030C0F2B70001908AE0B0
:1044400043F60400C4F20200016801F03F01059147
:1044500000684002002813D5FFE743F60400C4F2C9
:1044600002000068C0F3881041F60031C0F2B701C5
:10447000A0FB0101059A0023FBF73AFF049012E02C
:1044800043F60400C4F202000068C0F3881042F250
:104490000041C0F2F401A0FB0101059A0023FBF7E3
:1044A00027FF0490FFE743F60400C4F2020000680F
:1044B00000F44031022000EBD130039004980399BE
:1044C000B0FBF1F0019046E043F60400C4F20200B4
:1044D000016801F03F01059100684002002813D5F2
:1044E000FFE743F60400C4F202000068C0F388103E
:1044F00041F60031C0F2B701A0FB0101059A00238B
:10450000FBF7F6FE049012E043F60400C4F202004A
:104510000068C0F3881042F20041C0F2F401A0FB31
:104520000101059A0023FBF7E3FE0490FFE743F641
:104530000400C4F202000068C0F302700290049804
:104540000299B0FBF1F0019005E042F20040C0F2A8
:10455000F4000190FFE7019806B080BD80B586B0F9
:104560000490049820B9FFE701208DF8170084E338
:1045700004980078C007002800F0BA80FFE743F6EF
:104580000800C4F20200006800F00C00042828D0E3
:10459000FFE743F60800C4F20200006800F00C00D8
:1045A00008280BD1FFE743F60400C4F202000068BC
:1045B00000F48000B0F5800F13D0FFE743F6080049
:1045C000C4F20200006800F00C000C281ED1FFE7C6
:1045D00043F60400C4F2020000684002002815D52A
:1045E000FFE743F60000C4F20200006800F4003167
:1045F0000020B0EB514F08D0FFE70498406820B985
:10460000FFE701208DF8170037E370E0FFE704981B
:104610004068B0F5803F09D1FFE743F60001C4F2DE
:104620000201086840F48030086020E00498406887
:10463000B0F5A02F0DD1FFE743F60001C4F202014F
:10464000086840F480200860086840F48030086002
:104650000CE043F60001C4F20201086820F4803047
:104660000860086820F480200860FFE7FFE7FFE7A4
:1046700004984068E8B1FFE7FDF708FF0390FFE703
:1046800043F60000C4F20200006800F4003100208C
:10469000B0EB514F0CD1FFE7FDF7F8FE0399401A3C
:1046A000652804D3FFE703208DF81700E5E2E7E76C
:1046B0001CE0FDF7EBFE0390FFE743F60000C4F2B9
:1046C0000200006800F400310020B0EB514F0CD024
:1046D000FFE7FDF7DBFE0399401A652804D3FFE7E7
:1046E00003208DF81700C8E2E7E7FFE7FFE7FFE7E1
:1046F000049800788007002840F1A980FFE743F67E
:104700000800C4F20200006810F00C0F26D0FFE78A
:1047100043F60800C4F20200006800F00C0008280C
:1047200009D1FFE743F60400C4F20200006840022A
:10473000002813D5FFE743F60800C4F20200006822
:1047400000F00C000C282CD1FFE743F60400C4F263
:10475000020000684002002823D4FFE743F600006F
:10476000C4F20200006800F002010020B0EB510F1B
:1047700009D0FFE70498C068012804D0FFE70120B2
:104780008DF8170079E243F60001C4F202010868CF
:1047900020F0F800049A126940EAC2000860FFE7BE
:1047A00054E00498C06870B3FFE70021C4F24721C9
:1047B00001200860FDF76AFE0390FFE743F6000062
:1047C000C4F20200006800F002010020B0EB510FBB
:1047D0000CD1FFE7FDF75AFE0399401A032804D3D2
:1047E000FFE703208DF8170047E2E7E743F60001F3
:1047F000C4F20201086820F0F800049A126940EA45
:10480000C200086021E00021C4F2472100200860B6
:10481000FDF73CFE0390FFE743F60000C4F2020000
:10482000006800F002010020B0EB510F0CD0FFE750
:10483000FDF72CFE0399401A032804D3FFE7032059
:104840008DF8170019E2E7E7FFE7FFE7FFE70498B5
:104850000078000700284BD5FFE70498406918B39B
:10486000FFE740F68061C4F2472101200860FDF7B0
:104870000DFE0390FFE743F67400C4F202000068E7
:1048800000F002010020B0EB510F0CD1FFE7FDF763
:10489000FDFD0399401A032804D3FFE703208DF898
:1048A0001700EAE1E7E722E040F68061C4F2472121
:1048B00000200860FDF7EAFD0390FFE743F674006F
:1048C000C4F20200006800F002010020B0EB510FBA
:1048D0000CD0FFE7FDF7DAFD0399401A032804D353
:1048E000FFE703208DF81700C7E1E7E7FFE7FFE7E1
:1048F000049800784007002840F1CE80FFE70020B0
:104900008DF8070043F64000C4F202000068C000C2
:10491000002815D4FFE7FFE70020009043F6400091
:10492000C4F20200016841F080510160006800F0AB
:10493000805000900098FFE701208DF80700FFE706
:1049400047F20000C4F200000068C005002822D42D
:10495000FFE747F20001C4F20001086840F48070EC
:104960000860FDF793FD0390FFE747F20000C4F2F3
:1049700000000068C00500280CD4FFE7FDF786FDA5
:104980000399401A032804D3FFE703208DF817008A
:1049900073E1EAE7FFE7FFE704988068012809D19F
:1049A000FFE743F67001C4F20201086840F001001D
:1049B00008601FE00498806805280DD1FFE743F6E2
:1049C0007001C4F20201086840F004000860086841
:1049D00040F0010008600CE043F67001C4F20201EF
:1049E000086820F001000860086820F004000860F2
:1049F000FFE7FFE7FFE704988068F8B1FFE7FDF7FE
:104A000045FD0390FFE743F67000C4F20200006822
:104A100000F002010020B0EB510F0ED1FFE7FDF7CF
:104A200035FD0399401A41F28931884204D3FFE7EA
:104A300003208DF8170020E1E5E71EE0FDF726FDD5
:104A40000390FFE743F67000C4F20200006800F034
:104A500002010020B0EB510F0ED0FFE7FDF716FD6D
:104A60000399401A41F28931884204D3FFE70320B9
:104A70008DF8170001E1E5E7FFE79DF80700012841
:104A800009D1FFE743F64001C4F20201086820F0B3
:104A900080500860FFE7FFE704988069002800F075
:104AA000E880FFE743F60800C4F20200006800F067
:104AB0000C00082800F08880FFE70498806902282D
:104AC0005FD1FFE76021C4F2472100200860FDF7B5
:104AD000DDFC0390FFE743F60000C4F2020000682B
:104AE00000F000710020B0EB516F0CD0FFE7FDF734
:104AF000CDFC0399401A032804D3FFE703208DF867
:104B00001700BAE0E7E70499C869D1F820C04B6AFA
:104B10008A6A40EA0C0040EA8310D2034FF6FF7322
:104B20009A43A2F580321043CA6A40EA0260096BD8
:104B300040EA017043F60401C4F2020108606021FA
:104B4000C4F2472101200860FDF7A0FC0390FFE7B5
:104B500043F60000C4F20200006800F0007100207B
:104B6000B0EB516F0CD1FFE7FDF790FC0399401AB1
:104B7000032804D3FFE703208DF817007DE0E7E763
:104B800021E06021C4F2472100200860FDF77EFC8F
:104B90000390FFE743F60000C4F20200006800F053
:104BA00000710020B0EB516F0CD0FFE7FDF76EFCF9
:104BB0000399401A032804D3FFE703208DF8170058
:104BC0005BE0E7E7FFE753E004988069012804D140
:104BD000FFE701208DF817004FE043F60400C4F210
:104BE0000200006802900498806901283AD0FFE72B
:104BF000029800F480000499C969884232D1FFE725
:104C0000029800F03F000499096A88422AD1FFE720
:104C1000029847F6C07108400499496AB0EB811FB9
:104C200020D1FFE7029800F440300499896AC90353
:104C30004FF6FF729143A1F58031884212D1FFE710
:104C4000029800F070600499C96AB0EB016F09D155
:104C5000FFE7029800F0E0400499096BB0EB017F98
:104C600004D0FFE701208DF8170006E0FFE7FFE71B
:104C7000FFE700208DF81700FFE79DF8170006B04A
:104C800080BD000080B582B00190019801F086FAE5
:104C900002B080BD80B586B004900391ADF80A20C3
:104CA000049890F8420020284DD1FFE7039820B1E6
:104CB000FFE7BDF80A0020B9FFE701208DF81700D3
:104CC00045E0049901200863049900204863049892
:104CD0000399BDF80A2001F0CDFC8DF809009DF87C
:104CE000090058BBFFE70498006B012821D1FFE7BA
:104CF000FFE7002001900498006800680190049884
:104D00000068406801900198FFE7FFE7FFE704981B
:104D1000006850E8030F40F010000090FFE7009992
:104D20000498026842E803100028F0D1FFE7FFE78B
:104D300003E001208DF80900FFE7FFE79DF8090077
:104D40008DF8170003E002208DF81700FFE79DF8AB
:104D5000170006B080BD000080B584B00390ADF8A8
:104D60000A100398006845F20001C4F2000188426D
:104D70001CD1FFE7BDF80A2042F29830C2F20000D1
:104D8000009042F2CC51C2F200010191FF2300F0E9
:104D900099FB019942F21A40C2F2000006F0D6FCDB
:104DA000009801999622FFF775FFFFE704B080BDD8
:104DB00081B0009001B0704780B592B01190119809
:104DC00000680068109011980068C0680F901198F2
:104DD000006840690E9000200D900C90109800F033
:104DE0000F000D900D9888B9FFE79DF840008006F0
:104DF00000280AD5FFE79DF83C008006002804D56E
:104E0000FFE7119801F0E2FAEAE1FFE70D980028C8
:104E100000F0C280FFE79DF83800C00738B9FFE70F
:104E2000BDF83C0010F4907F00F0B680FFE79DF8DD
:104E30004000C00758B1FFE79DF83D00C00730B102
:104E4000FFE71199486C40F001004864FFE79DF8C6
:104E50004000400700280BD5FFE79DF83800C00749
:104E600030B1FFE71199486C40F002004864FFE759
:104E70009DF84000800700280BD5FFE79DF838001B
:104E8000C00730B1FFE71199486C40F00400486456
:104E9000FFE79DF840000007002811D5FFE79DF8C7
:104EA0003C008006002805D4FFE79DF83800C007C5
:104EB00030B1FFE71199486C40F008004864FFE703
:104EC0001198406C002866D0FFE79DF840008006EE
:104ED00000280AD5FFE79DF83C008006002804D58D
:104EE000FFE7119801F072FAFFE711980068406936
:104EF000C0F380100C901198406C0007002804D477
:104F0000FFE70C9800283ED0FFE7119801F000FA67
:104F1000119800684069400600282FD5FFE7FFE799
:104F2000FFE71198006850E8050F20F040000B9053
:104F3000FFE70B991198026842E805100028F0D1AC
:104F4000FFE7FFE71198C06B98B1FFE71198C16BBD
:104F500046F2F120C0F6000008651198C06BFCF71E
:104F600023FE28B1FFE71198C06B016D8847FFE76A
:104F700003E01198FFF71CFFFFE703E01198FFF72C
:104F800017FFFFE706E01198FFF712FF11990020C5
:104F90004864FFE7FFE723E11198006B012840F028
:104FA000FF80FFE79DF84000C006002840F1F88030
:104FB000FFE79DF83C00C006002840F1F180FFE7C4
:104FC000FFE700200A901198006800680A90119885
:104FD000006840680A900A98FFE7119800684069E5
:104FE0004006002840F18280FFE71198C06B0068FE
:104FF0004068ADF82600BDF82600002875D0FFE710
:10500000BDF826001199898D88426EDAFFE7BDF858
:1050100026001199C8851198C06BC069B0F5807FD2
:1050200058D0FFE7FFE7FFE71198006850E8030F4B
:1050300020F480700890FFE708991198026842E810
:1050400003100028F0D1FFE7FFE7FFE7FFE7119823
:10505000006850E8050F20F001000790FFE707996E
:105060001198026842E805100028F0D1FFE7FFE739
:10507000FFE7FFE71198006850E8050F20F04000B7
:105080000690FFE706991198026842E8051000288B
:10509000F0D1FFE7FFE71199202081F84200119934
:1050A00000200863FFE7FFE71198006850E8030F4E
:1050B00020F010000590FFE705991198026842E87A
:1050C00003100028F0D1FFE7FFE71198C06BFCF751
:1050D000F5FCFFE71199022048631198818DC28D7C
:1050E000891A89B2FFF738FEFFE779E01199888DB8
:1050F000C98D401AADF812001198C08D00284ED00D
:10510000FFE7BDF81200002849D0FFE7FFE7FFE7FF
:105110001198006850E8030F20F490700390FFE7A7
:1051200003991198026842E803100028F0D1FFE7C4
:10513000FFE7FFE7FFE71198006850E8050F20F050
:1051400001000290FFE702991198026842E80510F9
:105150000028F0D1FFE7FFE71199202081F84200F5
:10516000119900200863FFE7FFE71198006850E8F5
:10517000030F20F010000190FFE7019911980268D9
:1051800042E803100028F0D1FFE7FFE71199022061
:1051900048631198BDF81210FFF7DEFDFFE71FE02E
:1051A0009DF84000000600280AD5FFE79DF83C0066
:1051B0000006002804D5FFE7119801F08DFA0FE0F2
:1051C0009DF84000400600280AD5FFE79DF83C0006
:1051D0004006002804D5FFE7119801F0E3F8FFE747
:1051E00012B080BD80B582B00090009820B9FFE772
:1051F00001208DF8070040E00098806908B1FFE7C2
:1052000000E0FFE7009890F8410040B9FFE70099FF
:10521000002081F84000009800F034F8FFE7009982
:10522000242081F8410000980168C86820F40050EB
:10523000C860009801F080F900980168086920F4BE
:105240009040086100980168486920F02A00486190
:1052500000980168C86840F40050C86000990020B8
:105260004864009A202182F84110009A82F8421086
:10527000009948638DF80700FFE79DF8070002B02A
:1052800080BD000080B59AB019900020189017904A
:105290001690159014901998006845F20001C4F218
:1052A0000001884269D1FFE7FFE70020139043F631
:1052B0004000C4F20200016841F4801101600068FE
:1052C00000F4801013901398FFE7FFE7002012907E
:1052D00043F63000C4F20200016841F004010160AD
:1052E000006800F0040012901298FFE7FFE700202A
:1052F000119043F63000C4F20200016841F0080149
:105300000160006800F0080011901198FFE74FF469
:105310008050149002200890159000200C90169058
:1053200003200990179008200A90189040F600007A
:10533000C4F2020014A90B91FCF7C2FEDDF820C0F4
:10534000099A0A980B990C9B4FF0040ECDF850E087
:10535000CDF854C016931792189040F60040C4F24E
:105360000200FCF7ADFE0C9A35200D901146FDF7BA
:1053700025F90D98FDF718F99EE01998006844F694
:105380000001C4F20001884240F09580FFE7FFE78A
:105390000020109043F64000C4F20200016841F47E
:1053A00080210160006800F4802010901098FFE7D1
:1053B000FFE700200F9043F63000C4F202000168BE
:1053C00041F004010160006800F004000F900F98A4
:1053D000FFE7FFE700200E9043F63000C4F2020022
:1053E000016841F002010160006800F002000E90C7
:1053F0000E98FFE7202014900220019015900020C5
:1054000006901690032002901790072003901890A2
:1054100040F60000C4F2020014A90491FCF750FE0B
:10542000DDF804C0029A03980499069B4FF4806E3D
:10543000CDF814E0CDF850E0CDF854C01693179293
:10544000189040F20040C4F20200FCF739FE059AC1
:10545000069941F60C60C2F20000079046F228035C
:10546000C4F2020303604FF0006343608160C160D7
:10547000026141618161C1614FF440320262416267
:10548000FCF744FD18B1FFE7FBF7C0FAFFE7FFE7C1
:10549000199841F60C61C2F20001C1631998886342
:1054A000FFE72720009000221146FDF787F80098BB
:1054B000FDF77AF8FFE7FFE71AB080BD81B00090F2
:1054C00001B0704780B58AB008900791ADF81A20F6
:1054D000059300200290089890F84100202840F0A1
:1054E0008180FFE7079820B1FFE7BDF81A0020B9D7
:1054F000FFE701208DF8270078E008990020486434
:105500000899212081F84100FCF7C0FF0290BDF806
:105510001A0008998884BDF81A000899C884089868
:105520008068B0F5805F09D1FFE70898006928B965
:10553000FFE7002004900798039004E00798049088
:1055400000200390FFE7FFE70898C08C78B3FFE7DF
:105550000898029B05996A4611608021002201F09B
:1055600005F940B1FFE70899202081F841000320A8
:105570008DF827003AE0049858B9FFE703980088AF
:105580006FF35F2008990968486003980230039020
:1055900008E0049800780899096848600498013088
:1055A0000490FFE70899C88C0138C884CCE70898B4
:1055B000029B05996A4611604021002201F0D6F84D
:1055C00040B1FFE70899202081F8410003208DF8C1
:1055D00027000BE00899202081F8410000208DF879
:1055E000270003E002208DF82700FFE79DF8270041
:1055F0000AB080BD81B0009001B07047FFE7FEE7C0
:1056000083B0029001918DF8032000208DF80200F4
:105610008DF80200FFE79DF802009DF80310884214
:1056200029DAFFE70298000F092809D8FFE7029856
:10563000000F303001999DF8022001F8120009E0B6
:105640000299372000EB117001999DF8022001F8B2
:105650001200FFE702980001029001989DF80210E5
:1056600000EB410100204870FFE79DF80200013087
:105670008DF80200CFE703B07047000080B582B01C
:1056800041F6BC50C2F20000009046F20041C4F264
:105690000001016003214160002101918160C1602E
:1056A0004FF4102202614FF40012426101764176FC
:1056B0008176C17601774177FBF7E4FE18B1FFE709
:1056C000FBF7A4F9FFE702B080BD000080B582B00F
:1056D00041F6E450C2F20000009046F60001C4F228
:1056E0000001016003214160002101918160C160DE
:1056F0004FF4102202614FF40012426101764176AC
:105700008176C17601774177FBF7BCFE18B1FFE7E0
:10571000FBF77CF9FFE702B080BD000080B582B0E6
:10572000FFE70020019043F63000C4F20200016858
:1057300041F400110160006800F40010019001982C
:10574000FFE70C20009000221146FCF737FF00987D
:10575000FCF72AFF02B080BD80B58AB00020099016
:105760000890079006900590FFE70020049043F60C
:105770003000C4F20200016841F08001016000685D
:1057800000F0800004900498FFE7FFE700200390FA
:1057900043F63000C4F20200016841F004010160E8
:1057A000006800F0040003900398FFE7FFE7002083
:1057B000029043F63000C4F20200016841F0020199
:1057C0000160006800F0020002900298FFE7FFE726
:1057D0000020019043F63000C4F20200016841F05D
:1057E00001010160006800F0010001900198FFE7ED
:1057F000FFE70020009043F63000C4F20200016889
:1058000041F008010160006800F008000090009875
:10581000FFE74FF46070059000200690012007908C
:1058200040F60000C4F2020005A9FCF749FC0AB0EA
:1058300080BD000080B582B042F29830C2F2000014
:10584000019045F20001C4F2000101604FF4E13122
:10585000416000218160C16001610C22426181616F
:10586000C161FFF7BFFC18B1FFE7FBF7CFF8FFE717
:1058700002B080BD80B582B042F25030C2F200006A
:10588000019044F60001C4F20001016048F2A061F9
:10589000C0F20101416000218160C16001610C2200
:1058A00042618161C161FFF79DFC18B1FFE7FBF721
:1058B000ADF8FFE702B080BD80B541F6E020C2F24E
:1058C000000040F20801C2F20001002202F0C6F915
:1058D00018B1FFE7FBF79AF8FFE741F6E020C2F2C4
:1058E000000040F22C01C2F2000102F0BBFE18B130
:1058F000FFE7FBF78BF8FFE741F6E020C2F200007C
:1059000040F2D401C2F2000101F0A4FB18B1FFE79C
:10591000FBF77CF8FFE741F6E020C2F2000003F05D
:105920002BF818B1FFE7FBF771F8FFE780BD000027
:10593000FFE7FEE7FFE7FEE788B0079006910592D4
:10594000079800F0070004900498C0F107000528AC
:1059500003D3FFE70420019004E00498C0F107009E
:105960000190FFE70198039004980430062803D8BB
:10597000FFE70020009003E0049803380090FFE761
:105980000098029006980399012202FA01F1013968
:105990000840029B984005999A40013A11400843FB
:1059A00008B0704780B541F66C60C2F20000FDF7A8
:1059B00071F980BD80B586B00590049105980068A6
:1059C0000390039802900398006C01900298049948
:1059D00000EB4110D0F8080B0090019843F20B0146
:1059E000C4F6547188420FD3FFE79DF8010000060A
:1059F000002809D5FFE70298049900EB41114FF404
:105A00000040C1F8080BFFE70598FDF7A3FF0198D8
:105A100043F20B01C4F6547188420DD3FFE7059899
:105A20008079012808D1FFE70599086801F29C42B6
:105A3000012103F0B3FDFFE7002006B080BD0000A8
:105A400080B588B007900691079800680490049884
:105A500003900498006C02900398069900EB4110A3
:105A6000D0F8080B019007988079012840F08180D8
:105A7000FFE79DF804000007002818D5FFE702980B
:105A800043F20B01C4F6547188420FD3FFE79DF82F
:105A900005000006002809D5FFE70398069900EBEA
:105AA00041114FF40040C1F8080BFFE760E09DF89A
:105AB00004008006002808D5FFE70398069900EB4C
:105AC00041112020C1F8080B51E09DF8040010F0AE
:105AD000280F4AD1FFE7029843F20B01C4F6547134
